:040000000200313297
:03000B0002008D63
:0100130032BA
:03001B000200A937
:0100230032AA
:03002B000200C50B
:03008A0002002E43
:03002E000200E0ED
:10008D00C0E0C0D0758CD8758AF00508E508249BB2
:10009D005005750800B290D0D0D0E032C0E0C0D08D
:1000AD00758DB1758BE00509E509249B5005750922
:1000BD0000B291D0D0D0E032C0E0C0D010CF0280DD
:1000CD000D050AE50A249B5005750A00B292D0D0A1
:1000DD00D0E0325389F0438901758CD8758AF0D2FE
:1000ED008CD2A953890F438910758DB1758BE0D2D0
:1000FD008ED2AB75CD0075CC0075CB6375CAC0D2F1
:07010D00CAD2ADD2AF80FEA3
:06006000E478FFF6D8FD74
:10003E007900E94400601B7A00900118780175A0E0
:10004E0000E493F2A308B8000205A0D9F4DAF27521
:02005E00A0FF01
:100066007800E84400600A790175A000E4F309D835
:10007600FC7800E84400600C7900900001E4F0A3ED
:04008600D8FCD9FACF
:0D00310075810A120114E582600302002EA1
:0401140075820022CE
:00000001FF
