:03000000020006F5
:03005F0002000399
:030003000200E414
:20006200AF828F061FEE60157D007E0074012DFBE43EFC8B058C06EB4C60E780EF2275E7F3
:200082000075E50075E60075E38075E40022AE82AF8375E78075E5018EE48FE375E64675C3
:2000A200E6B900AFE2C007120080D0078F8222AE82AF8375E78075E5028EE48FE38508E2BE
:2000C20075E64675E6B900020080AE82AF8375E78075E5038EE48FE375E64675E6B90002B1
:2000E20000807590FE75820A1200629020001200CC7E007F008E048F0574202DFD8C828DFC
:2001020083C007C006120090AD82D006D007BDFF0280030201930EBE00010F8F0574FE2D69
:2001220050D37590FC75820A1200627E007F008E048F0574202DFD8C828D838E08C007C008
:20014200061200B1D006D0070EBE00010F8F0574FE2D50DB7590F875820A1200627E007F7E
:20016200008E048F0574202DFD8C828D83C007C006120090AD82D006D0078E04EDB5041127
:160182000EBE00010F8F0574FE2D50D57590F080FE53907F80FEE0
:06003500E478FFF6D8FD9F
:200013007900E94400601B7A0090019C780175A000E493F2A308B8000205A0D9F4DAF275F6
:02003300A0FF2C
:20003B007800E84400600A790175A000E4F309D8FC7800E84400600C7900900001E4F0A3C3
:04005B00D8FCD9FAFA
:0D000600758108120198E582600302000375
:04019800758200224A
:00000001FF
