:04000000020029329F
:01000B0032C2
:0100130032BA
:01001B0032B2
:0300230002008553
:0300820002002653
:030026000200CB0A
:100085001098028005859990800AC2998508991073
:10009500990280FB32858208D29922AD82AE83AF68
:1000A500F08D828E838FF01200EDFC60188C820D2E
:1000B500BD00010EC007C006C00512009AD005D0CC
:1000C50006D00780DC22439850438780D2BC5389F1
:1000D5000F438920758DF3D28ED2ACD2AF90010D2E
:0800E50075F0801200A080FEFE
:06010D0048454C4C4F0078
:06005800E478FFF6D8FD7C
:100036007900E94400601B7A00900113780175A0ED
:1000460000E493F2A308B8000205A0D9F4DAF27529
:02005600A0FF09
:10005E007800E84400600A790175A000E4F309D83D
:10006E00FC7800E84400600C7900900001E4F0A3F5
:04007E00D8FCD9FAD7
:0D002900758108120109E5826003020026BE
:1000ED0020F71430F6148883A88220F507E6A8833C
:1000FD0075830022E280F7E49322E02275820022CC
:00000001FF
